{
  "address": "0x6a6025BF7843684fd6e6d857abe849dC1c257D81",
  "abi": [
    {
      "inputs": [],
      "name": "GameOver",
      "type": "error"
    },
    {
      "inputs": [],
      "name": "InvalidSelection",
      "type": "error"
    },
    {
      "inputs": [],
      "name": "NotYourTurn",
      "type": "error"
    },
    {
      "anonymous": false,
      "inputs": [
        {
          "indexed": false,
          "internalType": "uint256",
          "name": "gameId",
          "type": "uint256"
        },
        {
          "indexed": false,
          "internalType": "address",
          "name": "teamOne",
          "type": "address"
        },
        {
          "indexed": false,
          "internalType": "address",
          "name": "teamTwo",
          "type": "address"
        }
      ],
      "name": "GameCreated",
      "type": "event"
    },
    {
      "anonymous": false,
      "inputs": [
        {
          "indexed": false,
          "internalType": "uint256",
          "name": "gameId",
          "type": "uint256"
        },
        {
          "indexed": false,
          "internalType": "address",
          "name": "winner",
          "type": "address"
        }
      ],
      "name": "GameFinished",
      "type": "event"
    },
    {
      "anonymous": false,
      "inputs": [
        {
          "indexed": true,
          "internalType": "uint256",
          "name": "gameId",
          "type": "uint256"
        },
        {
          "indexed": false,
          "internalType": "address",
          "name": "team",
          "type": "address"
        },
        {
          "indexed": false,
          "internalType": "uint8",
          "name": "column",
          "type": "uint8"
        }
      ],
      "name": "TurnTaken",
      "type": "event"
    },
    {
      "inputs": [],
      "name": "abandonCurrentGame",
      "outputs": [],
      "stateMutability": "nonpayable",
      "type": "function"
    },
    {
      "inputs": [
        {
          "internalType": "address",
          "name": "opponent",
          "type": "address"
        }
      ],
      "name": "challenge",
      "outputs": [],
      "stateMutability": "nonpayable",
      "type": "function"
    },
    {
      "inputs": [],
      "name": "gameId",
      "outputs": [
        {
          "internalType": "uint256",
          "name": "",
          "type": "uint256"
        }
      ],
      "stateMutability": "view",
      "type": "function"
    },
    {
      "inputs": [
        {
          "internalType": "uint256",
          "name": "",
          "type": "uint256"
        }
      ],
      "name": "getGame",
      "outputs": [
        {
          "internalType": "address",
          "name": "teamOne",
          "type": "address"
        },
        {
          "internalType": "address",
          "name": "teamTwo",
          "type": "address"
        },
        {
          "internalType": "address",
          "name": "winner",
          "type": "address"
        },
        {
          "internalType": "uint8",
          "name": "turn",
          "type": "uint8"
        }
      ],
      "stateMutability": "view",
      "type": "function"
    },
    {
      "inputs": [
        {
          "internalType": "uint8",
          "name": "_gameId",
          "type": "uint8"
        }
      ],
      "name": "getGameBoard",
      "outputs": [
        {
          "internalType": "uint8[7][6]",
          "name": "",
          "type": "uint8[7][6]"
        }
      ],
      "stateMutability": "view",
      "type": "function"
    },
    {
      "inputs": [
        {
          "internalType": "address",
          "name": "",
          "type": "address"
        }
      ],
      "name": "getGameIdFromAddress",
      "outputs": [
        {
          "internalType": "uint256",
          "name": "",
          "type": "uint256"
        }
      ],
      "stateMutability": "view",
      "type": "function"
    },
    {
      "inputs": [
        {
          "internalType": "uint256",
          "name": "_columnNumber",
          "type": "uint256"
        }
      ],
      "name": "makeMove",
      "outputs": [],
      "stateMutability": "nonpayable",
      "type": "function"
    },
    {
      "inputs": [
        {
          "internalType": "uint8",
          "name": "_gameId",
          "type": "uint8"
        },
        {
          "internalType": "uint8",
          "name": "columnIndex",
          "type": "uint8"
        }
      ],
      "name": "makeMoveById",
      "outputs": [],
      "stateMutability": "nonpayable",
      "type": "function"
    }
  ],
  "transactionHash": "0x8c8c5a59a942a0b52cb2f369a859c72320bbd255b7516ae23cdb08e403ef9a8a",
  "args": [],
  "numDeployments": 7,
  "solcInputHash": "e0ce6a12892cdf28ba44de7956ff9735",
  "bytecode": "0x6080604052600160005534801561001557600080fd5b506111de806100256000396000f3fe608060405234801561001057600080fd5b50600436106100885760003560e01c80639b33b4291161005b5780639b33b429146100f0578063a2f77bcc14610110578063abd9f4611461018e578063d7c81b55146101a157600080fd5b806310572ee01461008d5780636560e01c146100c05780636a37129f146100ca57806372fb9703146100dd575b600080fd5b6100ad61009b366004610fd1565b60026020526000908152604090205481565b6040519081526020015b60405180910390f35b6100c86101aa565b005b6100c86100d8366004611017565b610315565b6100c86100eb366004610fd1565b6106b3565b6101036100fe36600461104a565b6108cc565b6040516100b79190611065565b61015b61011e3660046110c3565b60016020819052600091825260409091208054918101546002909101546001600160a01b039283169291821691811690600160a01b900460ff1684565b604080516001600160a01b0395861681529385166020850152919093169082015260ff90911660608201526080016100b7565b6100c861019c3660046110c3565b61096b565b6100ad60005481565b33600090815260026020526040812054908190036102085760405162461bcd60e51b81526020600482015260166024820152752737ba1031bab93932b73a363c90383630bcb4b7339760511b60448201526064015b60405180910390fd5b6000818152600160208181526040808420815160a08101835281546001600160a01b03908116825294820154851693810193909352600281015493841683830152600160a01b90930460ff166060830152805160c08101909152610312939192916080840191906003840190600690835b828210156102dc576040805160e08101918290529085840190600790826000855b825461010083900a900460ff1681526020600192830181810494850194909303909202910180841161029a579050505050505081526020019060010190610279565b5050509152505080516001600160a01b039081166000908152600260209081526040808320839055930151909116815290812055565b50565b60ff82166000818152600160205260409020600201546001600160a01b0316156103525760405163df469ccb60e01b815260040160405180910390fd5b8160068160ff16111561037857604051631efccef760e11b815260040160405180910390fd5b60ff84166000908152600160208190526040822060028101549092918291600160a01b900416156103aa5760016103ad565b60025b6002840154909150600160a01b9004600116156103d45782546001600160a01b03166103e3565b60018301546001600160a01b03165b6001600160a01b0316336001600160a01b03161461041457604051631cc191eb60e31b815260040160405180910390fd5b60005b60078160ff1610156104bf5760058160ff16111561044857604051631efccef760e11b815260040160405180910390fd5b6000846003018260ff1660068110610462576104626110dc565b018860ff1660078110610477576104776110dc565b602081049091015460ff601f9092166101000a900416905060008190036104ac57816104a281611108565b92509350506104bf565b50806104b781611108565b915050610417565b5080836003018360ff16600681106104d9576104d96110dc565b018760ff16600781106104ee576104ee6110dc565b60208104909101805460ff938416601f9093166101000a9283029284021916919091179055600284018054600160a01b900490911690601461052f83611108565b82546101009290920a60ff818102199093169183160217909155604080513381528983166020820152918a1692507fa6f41f711ea470b4b237d1b3e43b201e53517677308ae067a273fb1948ddbf0c910160405180910390a2610594878784846109d7565b156106aa57600283018054336001600160a01b03199091168117918290556040805160a08101825286546001600160a01b039081168252600188015416602082015280820192909252600160a01b90920460ff166060820152815160c0810190925261066e91859060808301906003830160066000835b828210156102dc576040805160e08101918290529085840190600790826000855b825461010083900a900460ff1681526020600192830181810494850194909303909202910180841161062c57905050505050508152602001906001019061060b565b6040805160ff891681523360208201527fb7f35e624e036288272fbf3342c09219261ff29fdddd826989b289134e9ae535910160405180910390a15b50505050505050565b806001600160a01b03811633036106c957600080fd5b33600090815260026020526040902054156107195760405162461bcd60e51b815260206004820152601060248201526f20b63932b0b23c90383630bcb4b7339760811b60448201526064016101ff565b6001600160a01b0382166000908152600260205260409020541561077f5760405162461bcd60e51b815260206004820152601c60248201527f4f70706f6e656e7420697320616c726561647920706c6179696e672e0000000060448201526064016101ff565b610787610e85565b6040805160a0810182523381526001600160a01b038581166020808401918252600084860181815260608601828152608087018981528354845260019485905297909220865181549087166001600160a01b03199182161782559451938101805494871694909516939093179093559151600282018054935160ff16600160a01b026001600160a81b03199094169190941617919091179091559151909182916108379060038301906006610eb2565b50506000805483516001600160a01b0390811683526002602090815260408085208490559086015190911683529091205550600054604080519182523360208301526001600160a01b03861682820152517f8946648bc1dbc670d3f07e2c4de91731227b6d4ccc53b8ab1e951e84d960577e9181900360600190a16000805490806108c183611127565b919050555050505050565b6108d4610e85565b60ff8216600090815260016020526040808220815160c081019092529091600390910190600690835b82821015610960576040805160e08101918290529085840190600790826000855b825461010083900a900460ff1681526020600192830181810494850194909303909202910180841161091e5790505050505050815260200190600101906108fd565b505050509050919050565b33600090815260026020526040812054908190036109c45760405162461bcd60e51b81526020600482015260166024820152752737ba1031bab93932b73a363c90383630bcb4b7339760511b60448201526064016101ff565b6109d3816100d8600185611140565b5050565b6000806109e686868686610a77565b9050806004036109fa576001915050610a6f565b6000610a0887878787610b37565b905080600403610a1d57600192505050610a6f565b6000610a2b88888888610be2565b905080600403610a415760019350505050610a6f565b6000610a4f89898989610ce8565b905080600403610a66576001945050505050610a6f565b60009450505050505b949350505050565b6000600181610a868683611159565b90505b60078160ff161015610acf57610aa187868387610e17565b15610ab85781610ab081611127565b925050610abd565b610acf565b80610ac781611108565b915050610a89565b5060ff851615610b2e576000610ae6600187611172565b90505b610af587868387610e17565b15610b0c5781610b0481611127565b925050610b11565b610b2c565b60ff811615610b2c5780610b248161118b565b915050610ae9565b505b95945050505050565b6000600181610b468583611159565b90505b60068160ff161015610b8f57610b6187828887610e17565b15610b785781610b7081611127565b925050610b7d565b610b8f565b80610b8781611108565b915050610b49565b5060ff841615610b2e576000610ba6600186611172565b90505b610bb587828887610e17565b15610b0c5781610bc481611127565b92505060ff811615610b2c5780610bda8161118b565b915050610ba9565b6000600181610bf18583611159565b90505b610bff856006611172565b60ff168160ff161015610c4657610c1887828387610e17565b15610c2f5781610c2781611127565b925050610c34565b610c46565b80610c3e81611108565b915050610bf4565b5060ff841615801590610c5b575060ff851615155b15610b2e576000610c6d600186611172565b90506000610c7c600188611172565b90505b610c8b88838388610e17565b15610ca25782610c9a81611127565b935050610ca7565b610cdc565b60ff82161580610cb8575060ff8116155b610cdc5781610cc68161118b565b9250508080610cd49061118b565b915050610c7f565b50509050949350505050565b6000600160ff841615610d83576000610d02600186611172565b90506000610d11876001611159565b90505b60078160ff161015610d8057610d2c88838388610e17565b15610d435782610d3b81611127565b935050610d48565b610d80565b60ff82161580610d5c575060068160ff1610155b610d805781610d6a8161118b565b9250508080610d7890611108565b915050610d14565b50505b60ff851615610b2e576000610d99856001611159565b90506000610da8600188611172565b90505b60068260ff16108015610dbc575060015b15610cdc57610dcd88838388610e17565b15610ca25782610ddc81611127565b93505060068260ff16101580610df3575060ff8116155b610cdc5781610e0181611108565b9250508080610e0f9061118b565b915050610dab565b600080600160008760ff16815260200190815260200160002060030190508260ff16818660ff1660068110610e4e57610e4e6110dc565b018560ff1660078110610e6357610e636110dc565b602081049091015460ff601f9092166101000a90041614915050949350505050565b6040518060c001604052806006905b610e9c610efc565b815260200190600190039081610e945790505090565b8260068101928215610eec579160200282015b82811115610eec578251610edc9083906007610f1a565b5091602001919060010190610ec5565b50610ef8929150610fa9565b5090565b6040518060e001604052806007906020820280368337509192915050565b600183019183908215610f9d5791602002820160005b83821115610f6e57835183826101000a81548160ff021916908360ff1602179055509260200192600101602081600001049283019260010302610f30565b8015610f9b5782816101000a81549060ff0219169055600101602081600001049283019260010302610f6e565b505b50610ef8929150610fbd565b80821115610ef85760008155600101610fa9565b80821115610ef85760008155600101610fa9565b600060208284031215610fe357600080fd5b81356001600160a01b0381168114610ffa57600080fd5b9392505050565b803560ff8116811461101257600080fd5b919050565b6000806040838503121561102a57600080fd5b61103383611001565b915061104160208401611001565b90509250929050565b60006020828403121561105c57600080fd5b610ffa82611001565b610540810181836000805b60068110156110b957825184835b60078110156110a057825160ff1682526020928301929091019060010161107e565b50505060e0939093019260209290920191600101611070565b5050505092915050565b6000602082840312156110d557600080fd5b5035919050565b634e487b7160e01b600052603260045260246000fd5b634e487b7160e01b600052601160045260246000fd5b600060ff821660ff810361111e5761111e6110f2565b60010192915050565b600060018201611139576111396110f2565b5060010190565b81810381811115611153576111536110f2565b92915050565b60ff8181168382160190811115611153576111536110f2565b60ff8281168282160390811115611153576111536110f2565b600060ff82168061119e5761119e6110f2565b600019019291505056fea26469706673582212207a032f05ed6f8accdf6eb9b4f979e34e6642c1ce0505597f8a294feb1b56759564736f6c63430008110033",
  "devdoc": {
    "kind": "dev",
    "methods": {
      "challenge(address)": {
        "details": "opponent will go firstgame id is increated each time a new game is createdseason is over when timer (soon to be added) is past",
        "params": {
          "opponent": "challened"
        }
      },
      "makeMove(uint256)": {
        "params": {
          "_columnNumber": "selected column for move, starting at 1"
        }
      },
      "makeMoveById(uint8,uint8)": {
        "params": {
          "_gameId": "id of game",
          "columnIndex": "selected column for move, starting at 0"
        }
      }
    },
    "stateVariables": {
      "gameId": {
        "details": "Initialised at 1 because getGameIdFromAddress initializes mappings to 0."
      },
      "getGame": {
        "details": "This automatically generates a getter for us, which will return `Game.player1`, `Game.player2`, `Game.moves`, and `Game.finished` (the arrays are skipped)"
      }
    },
    "version": 1
  },
  "userdoc": {
    "errors": {
      "GameOver()": [
        {
          "notice": "revert if game has been completed"
        }
      ],
      "InvalidSelection()": [
        {
          "notice": "revert if column choice is invalid"
        }
      ],
      "NotYourTurn()": [
        {
          "notice": "revert if caller isn't current team"
        }
      ]
    },
    "events": {
      "GameCreated(uint256,address,address)": {
        "notice": "emiited when game is created"
      },
      "GameFinished(uint256,address)": {
        "notice": "emitted when game is complete"
      },
      "TurnTaken(uint256,address,uint8)": {
        "notice": "emitted after turn is successfully taken"
      }
    },
    "kind": "user",
    "methods": {
      "abandonCurrentGame()": {
        "notice": "Abandons the singleton game of msg.sender, if it exists. The game will still continue to be playable via makeMoveById, just not makeMove."
      },
      "challenge(address)": {
        "notice": "challenge an address to a game of connect four"
      },
      "gameId()": {
        "notice": "Used as a counter for the next game index."
      },
      "getGame(uint256)": {
        "notice": "An indexed list of games"
      },
      "getGameIdFromAddress(address)": {
        "notice": "An index of address to gameId"
      },
      "makeMove(uint256)": {
        "notice": "caller plays a turn in their current game"
      },
      "makeMoveById(uint8,uint8)": {
        "notice": "current team plays a turn"
      }
    },
    "version": 1
  },
  "storageLayout": {
    "storage": [
      {
        "astId": 54,
        "contract": "contracts/ConnectFour/ConnectFour.sol:ConnectFour",
        "label": "gameId",
        "offset": 0,
        "slot": "0",
        "type": "t_uint256"
      },
      {
        "astId": 60,
        "contract": "contracts/ConnectFour/ConnectFour.sol:ConnectFour",
        "label": "getGame",
        "offset": 0,
        "slot": "1",
        "type": "t_mapping(t_uint256,t_struct(Game)50_storage)"
      },
      {
        "astId": 65,
        "contract": "contracts/ConnectFour/ConnectFour.sol:ConnectFour",
        "label": "getGameIdFromAddress",
        "offset": 0,
        "slot": "2",
        "type": "t_mapping(t_address,t_uint256)"
      }
    ],
    "types": {
      "t_address": {
        "encoding": "inplace",
        "label": "address",
        "numberOfBytes": "20"
      },
      "t_array(t_array(t_uint8)7_storage)6_storage": {
        "base": "t_array(t_uint8)7_storage",
        "encoding": "inplace",
        "label": "uint8[7][6]",
        "numberOfBytes": "192"
      },
      "t_array(t_uint8)7_storage": {
        "base": "t_uint8",
        "encoding": "inplace",
        "label": "uint8[7]",
        "numberOfBytes": "32"
      },
      "t_mapping(t_address,t_uint256)": {
        "encoding": "mapping",
        "key": "t_address",
        "label": "mapping(address => uint256)",
        "numberOfBytes": "32",
        "value": "t_uint256"
      },
      "t_mapping(t_uint256,t_struct(Game)50_storage)": {
        "encoding": "mapping",
        "key": "t_uint256",
        "label": "mapping(uint256 => struct ConnectFour.Game)",
        "numberOfBytes": "32",
        "value": "t_struct(Game)50_storage"
      },
      "t_struct(Game)50_storage": {
        "encoding": "inplace",
        "label": "struct ConnectFour.Game",
        "members": [
          {
            "astId": 37,
            "contract": "contracts/ConnectFour/ConnectFour.sol:ConnectFour",
            "label": "teamOne",
            "offset": 0,
            "slot": "0",
            "type": "t_address"
          },
          {
            "astId": 39,
            "contract": "contracts/ConnectFour/ConnectFour.sol:ConnectFour",
            "label": "teamTwo",
            "offset": 0,
            "slot": "1",
            "type": "t_address"
          },
          {
            "astId": 41,
            "contract": "contracts/ConnectFour/ConnectFour.sol:ConnectFour",
            "label": "winner",
            "offset": 0,
            "slot": "2",
            "type": "t_address"
          },
          {
            "astId": 43,
            "contract": "contracts/ConnectFour/ConnectFour.sol:ConnectFour",
            "label": "turn",
            "offset": 20,
            "slot": "2",
            "type": "t_uint8"
          },
          {
            "astId": 49,
            "contract": "contracts/ConnectFour/ConnectFour.sol:ConnectFour",
            "label": "board",
            "offset": 0,
            "slot": "3",
            "type": "t_array(t_array(t_uint8)7_storage)6_storage"
          }
        ],
        "numberOfBytes": "288"
      },
      "t_uint256": {
        "encoding": "inplace",
        "label": "uint256",
        "numberOfBytes": "32"
      },
      "t_uint8": {
        "encoding": "inplace",
        "label": "uint8",
        "numberOfBytes": "1"
      }
    }
  }
}